{
  "contractName": "MultiSignWallet",
  "abi": [
    {
      "inputs": [],
      "stateMutability": "nonpayable",
      "type": "constructor"
    },
    {
      "anonymous": false,
      "inputs": [
        {
          "indexed": true,
          "internalType": "address",
          "name": "owner",
          "type": "address"
        },
        {
          "indexed": true,
          "internalType": "uint256",
          "name": "txIndex",
          "type": "uint256"
        }
      ],
      "name": "ConfirmTransaction",
      "type": "event"
    },
    {
      "anonymous": false,
      "inputs": [
        {
          "indexed": true,
          "internalType": "address",
          "name": "sender",
          "type": "address"
        },
        {
          "indexed": false,
          "internalType": "uint256",
          "name": "amount",
          "type": "uint256"
        },
        {
          "indexed": false,
          "internalType": "uint256",
          "name": "contract_balance",
          "type": "uint256"
        }
      ],
      "name": "Deposit",
      "type": "event"
    },
    {
      "anonymous": false,
      "inputs": [
        {
          "indexed": true,
          "internalType": "address",
          "name": "owner",
          "type": "address"
        },
        {
          "indexed": true,
          "internalType": "uint256",
          "name": "txIndex",
          "type": "uint256"
        }
      ],
      "name": "ExecuteTransaction",
      "type": "event"
    },
    {
      "anonymous": false,
      "inputs": [
        {
          "indexed": true,
          "internalType": "address",
          "name": "owner",
          "type": "address"
        },
        {
          "indexed": true,
          "internalType": "uint256",
          "name": "txIndex",
          "type": "uint256"
        }
      ],
      "name": "RevokeConfirmation",
      "type": "event"
    },
    {
      "stateMutability": "payable",
      "type": "fallback",
      "payable": true
    },
    {
      "inputs": [
        {
          "internalType": "address",
          "name": "",
          "type": "address"
        }
      ],
      "name": "isOwner",
      "outputs": [
        {
          "internalType": "bool",
          "name": "",
          "type": "bool"
        }
      ],
      "stateMutability": "view",
      "type": "function",
      "constant": true
    },
    {
      "inputs": [
        {
          "internalType": "uint256",
          "name": "",
          "type": "uint256"
        }
      ],
      "name": "owners",
      "outputs": [
        {
          "internalType": "string",
          "name": "name",
          "type": "string"
        },
        {
          "internalType": "address",
          "name": "owner_address",
          "type": "address"
        }
      ],
      "stateMutability": "view",
      "type": "function",
      "constant": true
    },
    {
      "inputs": [
        {
          "internalType": "uint256",
          "name": "",
          "type": "uint256"
        }
      ],
      "name": "transactions",
      "outputs": [
        {
          "internalType": "address",
          "name": "to",
          "type": "address"
        },
        {
          "internalType": "uint256",
          "name": "value",
          "type": "uint256"
        },
        {
          "internalType": "string",
          "name": "desc",
          "type": "string"
        },
        {
          "internalType": "bool",
          "name": "executed",
          "type": "bool"
        },
        {
          "internalType": "uint256",
          "name": "numConfirmations",
          "type": "uint256"
        }
      ],
      "stateMutability": "view",
      "type": "function",
      "constant": true
    },
    {
      "inputs": [],
      "name": "wallet_address",
      "outputs": [
        {
          "internalType": "address payable",
          "name": "",
          "type": "address"
        }
      ],
      "stateMutability": "view",
      "type": "function",
      "constant": true
    },
    {
      "stateMutability": "payable",
      "type": "receive",
      "payable": true
    },
    {
      "inputs": [
        {
          "internalType": "string[]",
          "name": "_name",
          "type": "string[]"
        },
        {
          "internalType": "address[]",
          "name": "_owner_address",
          "type": "address[]"
        },
        {
          "internalType": "uint256",
          "name": "_confirmationOfOwner",
          "type": "uint256"
        }
      ],
      "name": "addOwner",
      "outputs": [],
      "stateMutability": "nonpayable",
      "type": "function"
    },
    {
      "inputs": [],
      "name": "deposit",
      "outputs": [],
      "stateMutability": "payable",
      "type": "function",
      "payable": true
    },
    {
      "inputs": [],
      "name": "getBalance",
      "outputs": [
        {
          "internalType": "uint256",
          "name": "",
          "type": "uint256"
        }
      ],
      "stateMutability": "view",
      "type": "function",
      "constant": true
    },
    {
      "inputs": [
        {
          "internalType": "address",
          "name": "_to",
          "type": "address"
        },
        {
          "internalType": "uint256",
          "name": "_value",
          "type": "uint256"
        },
        {
          "internalType": "string",
          "name": "_desc",
          "type": "string"
        }
      ],
      "name": "submitTransaction",
      "outputs": [],
      "stateMutability": "nonpayable",
      "type": "function"
    },
    {
      "inputs": [
        {
          "internalType": "uint256",
          "name": "_txIndex",
          "type": "uint256"
        }
      ],
      "name": "confirmTransaction",
      "outputs": [],
      "stateMutability": "nonpayable",
      "type": "function"
    },
    {
      "inputs": [
        {
          "internalType": "uint256",
          "name": "_txIndex",
          "type": "uint256"
        }
      ],
      "name": "revokeConfirmation",
      "outputs": [],
      "stateMutability": "nonpayable",
      "type": "function"
    },
    {
      "inputs": [],
      "name": "getOwners",
      "outputs": [
        {
          "components": [
            {
              "internalType": "string",
              "name": "name",
              "type": "string"
            },
            {
              "internalType": "address",
              "name": "owner_address",
              "type": "address"
            }
          ],
          "internalType": "struct MultiSignWallet.Owner[]",
          "name": "",
          "type": "tuple[]"
        }
      ],
      "stateMutability": "view",
      "type": "function",
      "constant": true
    },
    {
      "inputs": [],
      "name": "getTransactionCount",
      "outputs": [
        {
          "internalType": "uint256",
          "name": "",
          "type": "uint256"
        }
      ],
      "stateMutability": "view",
      "type": "function",
      "constant": true
    },
    {
      "inputs": [
        {
          "internalType": "uint256",
          "name": "_txIndex",
          "type": "uint256"
        }
      ],
      "name": "getTransaction",
      "outputs": [
        {
          "internalType": "address",
          "name": "to",
          "type": "address"
        },
        {
          "internalType": "uint256",
          "name": "value",
          "type": "uint256"
        },
        {
          "internalType": "string",
          "name": "desc",
          "type": "string"
        },
        {
          "internalType": "bool",
          "name": "executed",
          "type": "bool"
        },
        {
          "internalType": "uint256",
          "name": "numConfirmations",
          "type": "uint256"
        }
      ],
      "stateMutability": "view",
      "type": "function",
      "constant": true
    },
    {
      "inputs": [
        {
          "internalType": "uint256",
          "name": "_txIndex",
          "type": "uint256"
        },
        {
          "internalType": "address",
          "name": "_owner",
          "type": "address"
        }
      ],
      "name": "isConfirmed",
      "outputs": [
        {
          "internalType": "bool",
          "name": "",
          "type": "bool"
        }
      ],
      "stateMutability": "view",
      "type": "function",
      "constant": true
    }
  ],
  "bytecode": "0x60806040523480156200001157600080fd5b50306000806101000a81548173ffffffffffffffffffffffffffffffffffffffff021916908373ffffffffffffffffffffffffffffffffffffffff1602179055506001600360003373ffffffffffffffffffffffffffffffffffffffff1673ffffffffffffffffffffffffffffffffffffffff16815260200190815260200160002060006101000a81548160ff021916908315150217905550600160405180604001604052806040518060400160405280600781526020017f4f776e65725f310000000000000000000000000000000000000000000000000081525081526020013373ffffffffffffffffffffffffffffffffffffffff168152509080600181540180825580915050600190039060005260206000209060020201600090919091909150600082015181600001908051906020019062000153929190620001ab565b5060208201518160010160006101000a81548173ffffffffffffffffffffffffffffffffffffffff021916908373ffffffffffffffffffffffffffffffffffffffff16021790555050506001600481905550620002bf565b828054620001b9906200028a565b90600052602060002090601f016020900481019282620001dd576000855562000229565b82601f10620001f857805160ff191683800117855562000229565b8280016001018555821562000229579182015b82811115620002285782518255916020019190600101906200020b565b5b5090506200023891906200023c565b5090565b5b80821115620002575760008160009055506001016200023d565b5090565b7f4e487b7100000000000000000000000000000000000000000000000000000000600052602260045260246000fd5b60006002820490506001821680620002a357607f821691505b602082108103620002b957620002b86200025b565b5b50919050565b61293080620002cf6000396000f3fe6080604052600436106100e15760003560e01c806380f59a651161007f578063c01a8c8411610059578063c01a8c8414610405578063d0e30db01461042e578063e01c001614610438578063e776a5b5146104615761016f565b806380f59a651461035c5780639ace38c214610399578063a0e67e2b146103da5761016f565b806320ea8d86116100bb57806320ea8d861461028a5780632e7700f0146102b35780632f54bf6e146102de57806333ea3dc81461031b5761016f565b8063025e7c27146101f857806303d79d281461023657806312065fe01461025f5761016f565b3661016f573373ffffffffffffffffffffffffffffffffffffffff167f90890809c654f11d6e72a28fa60149770a0d11ec6c92319d6ceb2bb0a4ea1a153460008054906101000a900473ffffffffffffffffffffffffffffffffffffffff1673ffffffffffffffffffffffffffffffffffffffff16316040516101659291906118ea565b60405180910390a2005b3373ffffffffffffffffffffffffffffffffffffffff167f90890809c654f11d6e72a28fa60149770a0d11ec6c92319d6ceb2bb0a4ea1a153460008054906101000a900473ffffffffffffffffffffffffffffffffffffffff1673ffffffffffffffffffffffffffffffffffffffff16316040516101ee9291906118ea565b60405180910390a2005b34801561020457600080fd5b5061021f600480360381019061021a9190611953565b61048c565b60405161022d929190611a5a565b60405180910390f35b34801561024257600080fd5b5061025d60048036038101906102589190611beb565b610568565b005b34801561026b57600080fd5b5061027461077e565b6040516102819190611c5a565b60405180910390f35b34801561029657600080fd5b506102b160048036038101906102ac9190611953565b6107be565b005b3480156102bf57600080fd5b506102c8610a87565b6040516102d59190611c5a565b60405180910390f35b3480156102ea57600080fd5b5061030560048036038101906103009190611c75565b610a94565b6040516103129190611cbd565b60405180910390f35b34801561032757600080fd5b50610342600480360381019061033d9190611953565b610ab4565b604051610353959493929190611cd8565b60405180910390f35b34801561036857600080fd5b50610383600480360381019061037e9190611d32565b610bc7565b6040516103909190611cbd565b60405180910390f35b3480156103a557600080fd5b506103c060048036038101906103bb9190611953565b610c46565b6040516103d1959493929190611cd8565b60405180910390f35b3480156103e657600080fd5b506103ef610d41565b6040516103fc9190611eca565b60405180910390f35b34801561041157600080fd5b5061042c60048036038101906104279190611953565b610e88565b005b610436611352565b005b34801561044457600080fd5b5061045f600480360381019061045a9190612095565b611354565b005b34801561046d57600080fd5b5061047661180a565b6040516104839190612141565b60405180910390f35b6001818154811061049c57600080fd5b90600052602060002090600202016000915090508060000180546104bf9061218b565b80601f01602080910402602001604051908101604052809291908181526020018280546104eb9061218b565b80156105385780601f1061050d57610100808354040283529160200191610538565b820191906000526020600020905b81548152906001019060200180831161051b57829003601f168201915b5050505050908060010160009054906101000a900473ffffffffffffffffffffffffffffffffffffffff16905082565b600360003373ffffffffffffffffffffffffffffffffffffffff1673ffffffffffffffffffffffffffffffffffffffff16815260200190815260200160002060009054906101000a900460ff166105f4576040517f08c379a00000000000000000000000000000000000000000000000000000000081526004016105eb90612208565b60405180910390fd5b60008054906101000a900473ffffffffffffffffffffffffffffffffffffffff1673ffffffffffffffffffffffffffffffffffffffff163182111561066e576040517f08c379a00000000000000000000000000000000000000000000000000000000081526004016106659061229a565b60405180910390fd5b600060026001816001815401808255809150500390600052602060002090600602019050838160000160006101000a81548173ffffffffffffffffffffffffffffffffffffffff021916908373ffffffffffffffffffffffffffffffffffffffff160217905550828160010181905550818160020190805190602001906106f692919061182e565b5060008160030160006101000a81548160ff0219169083151502179055506001816004018190555060018160050160003373ffffffffffffffffffffffffffffffffffffffff1673ffffffffffffffffffffffffffffffffffffffff16815260200190815260200160002060006101000a81548160ff02191690831515021790555050505050565b60008060009054906101000a900473ffffffffffffffffffffffffffffffffffffffff1673ffffffffffffffffffffffffffffffffffffffff1631905090565b600360003373ffffffffffffffffffffffffffffffffffffffff1673ffffffffffffffffffffffffffffffffffffffff16815260200190815260200160002060009054906101000a900460ff1661084a576040517f08c379a000000000000000000000000000000000000000000000000000000000815260040161084190612208565b60405180910390fd5b8060008110158015610860575060028054905081105b61089f576040517f08c379a000000000000000000000000000000000000000000000000000000000815260040161089690612306565b60405180910390fd5b81600281815481106108b4576108b3612326565b5b906000526020600020906006020160030160009054906101000a900460ff1615610913576040517f08c379a000000000000000000000000000000000000000000000000000000000815260040161090a906123a1565b60405180910390fd5b60006002848154811061092957610928612326565b5b906000526020600020906006020190508060050160003373ffffffffffffffffffffffffffffffffffffffff1673ffffffffffffffffffffffffffffffffffffffff16815260200190815260200160002060009054906101000a900460ff166109c7576040517f08c379a00000000000000000000000000000000000000000000000000000000081526004016109be9061240d565b60405180910390fd5b60008160050160003373ffffffffffffffffffffffffffffffffffffffff1673ffffffffffffffffffffffffffffffffffffffff16815260200190815260200160002060006101000a81548160ff0219169083151502179055506001816004016000828254610a36919061245c565b92505081905550833373ffffffffffffffffffffffffffffffffffffffff167ff0dca620e2e81f7841d07bcc105e1704fb01475b278a9d4c236e1c62945edd5560405160405180910390a350505050565b6000600280549050905090565b60036020528060005260406000206000915054906101000a900460ff1681565b6000806060600080600060028781548110610ad257610ad1612326565b5b906000526020600020906006020190508060000160009054906101000a900473ffffffffffffffffffffffffffffffffffffffff168160010154826002018360030160009054906101000a900460ff168460040154828054610b339061218b565b80601f0160208091040260200160405190810160405280929190818152602001828054610b5f9061218b565b8015610bac5780601f10610b8157610100808354040283529160200191610bac565b820191906000526020600020905b815481529060010190602001808311610b8f57829003601f168201915b50505050509250955095509550955095505091939590929450565b60008060028481548110610bde57610bdd612326565b5b906000526020600020906006020190508060050160008473ffffffffffffffffffffffffffffffffffffffff1673ffffffffffffffffffffffffffffffffffffffff16815260200190815260200160002060009054906101000a900460ff1691505092915050565b60028181548110610c5657600080fd5b90600052602060002090600602016000915090508060000160009054906101000a900473ffffffffffffffffffffffffffffffffffffffff1690806001015490806002018054610ca59061218b565b80601f0160208091040260200160405190810160405280929190818152602001828054610cd19061218b565b8015610d1e5780601f10610cf357610100808354040283529160200191610d1e565b820191906000526020600020905b815481529060010190602001808311610d0157829003601f168201915b5050505050908060030160009054906101000a900460ff16908060040154905085565b60606001805480602002602001604051908101604052809291908181526020016000905b82821015610e7f5783829060005260206000209060020201604051806040016040529081600082018054610d989061218b565b80601f0160208091040260200160405190810160405280929190818152602001828054610dc49061218b565b8015610e115780601f10610de657610100808354040283529160200191610e11565b820191906000526020600020905b815481529060010190602001808311610df457829003601f168201915b505050505081526020016001820160009054906101000a900473ffffffffffffffffffffffffffffffffffffffff1673ffffffffffffffffffffffffffffffffffffffff1673ffffffffffffffffffffffffffffffffffffffff168152505081526020019060010190610d65565b50505050905090565b600360003373ffffffffffffffffffffffffffffffffffffffff1673ffffffffffffffffffffffffffffffffffffffff16815260200190815260200160002060009054906101000a900460ff16610f14576040517f08c379a0000000000000000000000000000000000000000000000000000000008152600401610f0b90612208565b60405180910390fd5b8060008110158015610f2a575060028054905081105b610f69576040517f08c379a0000000000000000000000000000000000000000000000000000000008152600401610f6090612306565b60405180910390fd5b8160028181548110610f7e57610f7d612326565b5b906000526020600020906006020160050160003373ffffffffffffffffffffffffffffffffffffffff1673ffffffffffffffffffffffffffffffffffffffff16815260200190815260200160002060009054906101000a900460ff161561101a576040517f08c379a0000000000000000000000000000000000000000000000000000000008152600401611011906124dc565b60405180910390fd5b826002818154811061102f5761102e612326565b5b906000526020600020906006020160030160009054906101000a900460ff161561108e576040517f08c379a0000000000000000000000000000000000000000000000000000000008152600401611085906123a1565b60405180910390fd5b6000600285815481106110a4576110a3612326565b5b9060005260206000209060060201905060018160050160003373ffffffffffffffffffffffffffffffffffffffff1673ffffffffffffffffffffffffffffffffffffffff16815260200190815260200160002060006101000a81548160ff021916908315150217905550600181600401600082825461112391906124fc565b9250508190555060045481600401541061134b5760008160000160009054906101000a900473ffffffffffffffffffffffffffffffffffffffff1673ffffffffffffffffffffffffffffffffffffffff16826001015460405161118590612583565b60006040518083038185875af1925050503d80600081146111c2576040519150601f19603f3d011682016040523d82523d6000602084013e6111c7565b606091505b50509050801561127b5760018260030160006101000a81548160ff021916908315150217905550853373ffffffffffffffffffffffffffffffffffffffff167f5cbe105e36805f7820e291f799d5794ff948af2a5f664e580382defb6339004160405160405180910390a3853373ffffffffffffffffffffffffffffffffffffffff167f5445f318f4f5fcfb66592e68e0cc5822aa15664039bd5f0ffde24c5a8142b1ac60405160405180910390a3611349565b60008260030160006101000a81548160ff02191690831515021790555060008260050160003373ffffffffffffffffffffffffffffffffffffffff1673ffffffffffffffffffffffffffffffffffffffff16815260200190815260200160002060006101000a81548160ff0219169083151502179055506001826004016000828254611307919061245c565b925050819055506040517f08c379a0000000000000000000000000000000000000000000000000000000008152600401611340906125e4565b60405180910390fd5b505b5050505050565b565b600360003373ffffffffffffffffffffffffffffffffffffffff1673ffffffffffffffffffffffffffffffffffffffff16815260200190815260200160002060009054906101000a900460ff166113e0576040517f08c379a00000000000000000000000000000000000000000000000000000000081526004016113d790612208565b60405180910390fd5b6000825111611424576040517f08c379a000000000000000000000000000000000000000000000000000000000815260040161141b90612650565b60405180910390fd5b6000835111611468576040517f08c379a000000000000000000000000000000000000000000000000000000000815260040161145f906126bc565b60405180910390fd5b82518251146114ac576040517f08c379a00000000000000000000000000000000000000000000000000000000081526004016114a390612728565b60405180910390fd5b6000811180156114cd575060018054905082516114c991906124fc565b8111155b61150c576040517f08c379a0000000000000000000000000000000000000000000000000000000008152600401611503906127ba565b60405180910390fd5b306000806101000a81548173ffffffffffffffffffffffffffffffffffffffff021916908373ffffffffffffffffffffffffffffffffffffffff16021790555060005b82518110156117fd57600073ffffffffffffffffffffffffffffffffffffffff1683828151811061158357611582612326565b5b602002602001015173ffffffffffffffffffffffffffffffffffffffff16036115e1576040517f08c379a00000000000000000000000000000000000000000000000000000000081526004016115d890612826565b60405180910390fd5b600360008483815181106115f8576115f7612326565b5b602002602001015173ffffffffffffffffffffffffffffffffffffffff1673ffffffffffffffffffffffffffffffffffffffff16815260200190815260200160002060009054906101000a900460ff1615611688576040517f08c379a000000000000000000000000000000000000000000000000000000000815260040161167f90612892565b60405180910390fd5b6001600360008584815181106116a1576116a0612326565b5b602002602001015173ffffffffffffffffffffffffffffffffffffffff1673ffffffffffffffffffffffffffffffffffffffff16815260200190815260200160002060006101000a81548160ff0219169083151502179055506001604051806040016040528086848151811061171a57611719612326565b5b6020026020010151815260200185848151811061173a57611739612326565b5b602002602001015173ffffffffffffffffffffffffffffffffffffffff16815250908060018154018082558091505060019003906000526020600020906002020160009091909190915060008201518160000190805190602001906117a092919061182e565b5060208201518160010160006101000a81548173ffffffffffffffffffffffffffffffffffffffff021916908373ffffffffffffffffffffffffffffffffffffffff160217905550505080806117f5906128b2565b91505061154f565b5080600481905550505050565b60008054906101000a900473ffffffffffffffffffffffffffffffffffffffff1681565b82805461183a9061218b565b90600052602060002090601f01602090048101928261185c57600085556118a3565b82601f1061187557805160ff19168380011785556118a3565b828001600101855582156118a3579182015b828111156118a2578251825591602001919060010190611887565b5b5090506118b091906118b4565b5090565b5b808211156118cd5760008160009055506001016118b5565b5090565b6000819050919050565b6118e4816118d1565b82525050565b60006040820190506118ff60008301856118db565b61190c60208301846118db565b9392505050565b6000604051905090565b600080fd5b600080fd5b611930816118d1565b811461193b57600080fd5b50565b60008135905061194d81611927565b92915050565b6000602082840312156119695761196861191d565b5b60006119778482850161193e565b91505092915050565b600081519050919050565b600082825260208201905092915050565b60005b838110156119ba57808201518184015260208101905061199f565b838111156119c9576000848401525b50505050565b6000601f19601f8301169050919050565b60006119eb82611980565b6119f5818561198b565b9350611a0581856020860161199c565b611a0e816119cf565b840191505092915050565b600073ffffffffffffffffffffffffffffffffffffffff82169050919050565b6000611a4482611a19565b9050919050565b611a5481611a39565b82525050565b60006040820190508181036000830152611a7481856119e0565b9050611a836020830184611a4b565b9392505050565b611a9381611a39565b8114611a9e57600080fd5b50565b600081359050611ab081611a8a565b92915050565b600080fd5b600080fd5b7f4e487b7100000000000000000000000000000000000000000000000000000000600052604160045260246000fd5b611af8826119cf565b810181811067ffffffffffffffff82111715611b1757611b16611ac0565b5b80604052505050565b6000611b2a611913565b9050611b368282611aef565b919050565b600067ffffffffffffffff821115611b5657611b55611ac0565b5b611b5f826119cf565b9050602081019050919050565b82818337600083830152505050565b6000611b8e611b8984611b3b565b611b20565b905082815260208101848484011115611baa57611ba9611abb565b5b611bb5848285611b6c565b509392505050565b600082601f830112611bd257611bd1611ab6565b5b8135611be2848260208601611b7b565b91505092915050565b600080600060608486031215611c0457611c0361191d565b5b6000611c1286828701611aa1565b9350506020611c238682870161193e565b925050604084013567ffffffffffffffff811115611c4457611c43611922565b5b611c5086828701611bbd565b9150509250925092565b6000602082019050611c6f60008301846118db565b92915050565b600060208284031215611c8b57611c8a61191d565b5b6000611c9984828501611aa1565b91505092915050565b60008115159050919050565b611cb781611ca2565b82525050565b6000602082019050611cd26000830184611cae565b92915050565b600060a082019050611ced6000830188611a4b565b611cfa60208301876118db565b8181036040830152611d0c81866119e0565b9050611d1b6060830185611cae565b611d2860808301846118db565b9695505050505050565b60008060408385031215611d4957611d4861191d565b5b6000611d578582860161193e565b9250506020611d6885828601611aa1565b9150509250929050565b600081519050919050565b600082825260208201905092915050565b6000819050602082019050919050565b600082825260208201905092915050565b6000611dba82611980565b611dc48185611d9e565b9350611dd481856020860161199c565b611ddd816119cf565b840191505092915050565b611df181611a39565b82525050565b60006040830160008301518482036000860152611e148282611daf565b9150506020830151611e296020860182611de8565b508091505092915050565b6000611e408383611df7565b905092915050565b6000602082019050919050565b6000611e6082611d72565b611e6a8185611d7d565b935083602082028501611e7c85611d8e565b8060005b85811015611eb85784840389528151611e998582611e34565b9450611ea483611e48565b925060208a01995050600181019050611e80565b50829750879550505050505092915050565b60006020820190508181036000830152611ee48184611e55565b905092915050565b600067ffffffffffffffff821115611f0757611f06611ac0565b5b602082029050602081019050919050565b600080fd5b6000611f30611f2b84611eec565b611b20565b90508083825260208201905060208402830185811115611f5357611f52611f18565b5b835b81811015611f9a57803567ffffffffffffffff811115611f7857611f77611ab6565b5b808601611f858982611bbd565b85526020850194505050602081019050611f55565b5050509392505050565b600082601f830112611fb957611fb8611ab6565b5b8135611fc9848260208601611f1d565b91505092915050565b600067ffffffffffffffff821115611fed57611fec611ac0565b5b602082029050602081019050919050565b600061201161200c84611fd2565b611b20565b9050808382526020820190506020840283018581111561203457612033611f18565b5b835b8181101561205d57806120498882611aa1565b845260208401935050602081019050612036565b5050509392505050565b600082601f83011261207c5761207b611ab6565b5b813561208c848260208601611ffe565b91505092915050565b6000806000606084860312156120ae576120ad61191d565b5b600084013567ffffffffffffffff8111156120cc576120cb611922565b5b6120d886828701611fa4565b935050602084013567ffffffffffffffff8111156120f9576120f8611922565b5b61210586828701612067565b92505060406121168682870161193e565b9150509250925092565b600061212b82611a19565b9050919050565b61213b81612120565b82525050565b60006020820190506121566000830184612132565b92915050565b7f4e487b7100000000000000000000000000000000000000000000000000000000600052602260045260246000fd5b600060028204905060018216806121a357607f821691505b6020821081036121b6576121b561215c565b5b50919050565b7f6e6f74206f776e65720000000000000000000000000000000000000000000000600082015250565b60006121f260098361198b565b91506121fd826121bc565b602082019050919050565b60006020820190508181036000830152612221816121e5565b9050919050565b7f546869732077616c6c657420646f6573206e6f74206861766520656e6f75676860008201527f2062616c61636520746f2073656e640000000000000000000000000000000000602082015250565b6000612284602f8361198b565b915061228f82612228565b604082019050919050565b600060208201905081810360008301526122b381612277565b9050919050565b7f747820646f6573206e6f74206578697374000000000000000000000000000000600082015250565b60006122f060118361198b565b91506122fb826122ba565b602082019050919050565b6000602082019050818103600083015261231f816122e3565b9050919050565b7f4e487b7100000000000000000000000000000000000000000000000000000000600052603260045260246000fd5b7f747820616c726561647920657865637574656400000000000000000000000000600082015250565b600061238b60138361198b565b915061239682612355565b602082019050919050565b600060208201905081810360008301526123ba8161237e565b9050919050565b7f7478206e6f7420636f6e6669726d656400000000000000000000000000000000600082015250565b60006123f760108361198b565b9150612402826123c1565b602082019050919050565b60006020820190508181036000830152612426816123ea565b9050919050565b7f4e487b7100000000000000000000000000000000000000000000000000000000600052601160045260246000fd5b6000612467826118d1565b9150612472836118d1565b9250828210156124855761248461242d565b5b828203905092915050565b7f747820616c726561647920636f6e6669726d6564000000000000000000000000600082015250565b60006124c660148361198b565b91506124d182612490565b602082019050919050565b600060208201905081810360008301526124f5816124b9565b9050919050565b6000612507826118d1565b9150612512836118d1565b9250827fffffffffffffffffffffffffffffffffffffffffffffffffffffffffffffffff038211156125475761254661242d565b5b828201905092915050565b600081905092915050565b50565b600061256d600083612552565b91506125788261255d565b600082019050919050565b600061258e82612560565b9150819050919050565b7f5472616e73666572206973206661696c65640000000000000000000000000000600082015250565b60006125ce60128361198b565b91506125d982612598565b602082019050919050565b600060208201905081810360008301526125fd816125c1565b9050919050565b7f4f776e6572206973207265717569726564000000000000000000000000000000600082015250565b600061263a60118361198b565b915061264582612604565b602082019050919050565b600060208201905081810360008301526126698161262d565b9050919050565b7f4f776e65722773206e616d652069732072657175697265640000000000000000600082015250565b60006126a660188361198b565b91506126b182612670565b602082019050919050565b600060208201905081810360008301526126d581612699565b9050919050565b7f45616368206f776e6572206d7573682068617665206e616d6500000000000000600082015250565b600061271260198361198b565b915061271d826126dc565b602082019050919050565b6000602082019050818103600083015261274181612705565b9050919050565b7f436f6e6669726d6174696f6e206f6620746865206f776e657220697320696e7660008201527f616c696400000000000000000000000000000000000000000000000000000000602082015250565b60006127a460248361198b565b91506127af82612748565b604082019050919050565b600060208201905081810360008301526127d381612797565b9050919050565b7f696e76616c6964206f776e657200000000000000000000000000000000000000600082015250565b6000612810600d8361198b565b915061281b826127da565b602082019050919050565b6000602082019050818103600083015261283f81612803565b9050919050565b7f6f776e6572206e6f7420756e6971756500000000000000000000000000000000600082015250565b600061287c60108361198b565b915061288782612846565b602082019050919050565b600060208201905081810360008301526128ab8161286f565b9050919050565b60006128bd826118d1565b91507fffffffffffffffffffffffffffffffffffffffffffffffffffffffffffffffff82036128ef576128ee61242d565b5b60018201905091905056fea2646970667358221220e18c3affe0e0e0e87286ffb6f380a81772d291840b04915640d67f01dda1a75964736f6c634300080e0033",
  "immutableReferences": {},
  "source": "// SPDX-License-Identifier: MIT\npragma solidity >=0.8.7;\n\ncontract MultiSignWallet {\n    // Struct\n    // owner struct\n    struct Owner {\n        string name;\n        address owner_address;\n    }\n    // transactions struct\n    struct Transaction {\n        address to;\n        uint value;\n        string desc;\n        bool executed;\n        uint numConfirmations;\n        mapping(address=>bool) isConfirmed;\n\n    }\n\n    // Event\n    event Deposit(address indexed sender,uint amount,uint contract_balance);\n    event ConfirmTransaction(address indexed owner, uint indexed txIndex);\n    event ExecuteTransaction(address indexed owner, uint indexed txIndex);\n    event RevokeConfirmation(address indexed owner, uint indexed txIndex);\n\n    // Variable\n    address payable public wallet_address;\n    Owner[] public owners;\n    Transaction[] public transactions;\n    mapping(address => bool) public isOwner;\n    uint confirmationOfOwner;\n\n    // Constructor\n    constructor() {\n        wallet_address = payable(address(this));\n        isOwner[msg.sender] = true;\n        owners.push(Owner({name:\"Owner_1\",owner_address:msg.sender}));\n        // for(uint i = 0; i <_owner_address.length; i++ ){\n            \n        //     require(_owner_address[i] != address(0), \"invalid owner\");\n        //     require(!isOwner[_owner_address[i]], \"owner not unique\");\n\n        //     isOwner[_owner_address[i]] = true;\n        //     owners.push(Owner({name:\"_name[i]\",owner_address:_owner_address[i]}));\n        // }\n        confirmationOfOwner = 1;\n    }\n\n    // Modifier\n    // to verify the owner of this contract\n    modifier onlyOwner(){\n        require(isOwner[msg.sender], \"not owner\");\n        _;\n    }\n    // to check the transaction is not yet confirmed by msg.sender\n    modifier notConfirmed(uint _txIndex) {\n        require(!transactions[_txIndex].isConfirmed[msg.sender], \"tx already confirmed\");\n        _;\n    }\n    // to check the transaction is exist or not\n    modifier txExists(uint _txIndex) {\n        require(_txIndex >= 0 && _txIndex < transactions.length, \"tx does not exist\");\n        _;\n    }\n    // to check is the transaction is not yet executed\n    modifier notExecuted(uint _txIndex) {\n        require(!transactions[_txIndex].executed, \"tx already executed\");\n        _;\n    }\n\n\n    // Function\n    fallback() payable external {\n        emit Deposit(msg.sender, msg.value, wallet_address.balance);\n    }\n\n    receive() external payable {\n       emit Deposit(msg.sender, msg.value, wallet_address.balance);\n    }\n\n    // add owner to the contract\n    function addOwner(string[] memory _name, address[] memory _owner_address,uint _confirmationOfOwner)\n     public\n     onlyOwner \n     {\n        require(_owner_address.length > 0,\"Owner is required\");\n        require(_name.length > 0,\"Owner's name is required\");\n        require(_owner_address.length == _name.length,\"Each owner mush have name\");\n        require(_confirmationOfOwner > 0 && _confirmationOfOwner <= _owner_address.length + owners.length,\"Confirmation of the owner is invalid\");\n        wallet_address = payable(address(this));\n        for(uint i = 0; i <_owner_address.length; i++ ){\n            \n            require(_owner_address[i] != address(0), \"invalid owner\");\n            require(!isOwner[_owner_address[i]], \"owner not unique\");\n\n            isOwner[_owner_address[i]] = true;\n            owners.push(Owner({name:_name[i],owner_address:_owner_address[i]}));\n        }\n        confirmationOfOwner = _confirmationOfOwner;\n    }\n\n    // deposit to this contract\n    function deposit() payable external {\n        // if(!wallet_address.send(msg.value)){\n        //     revert(\"doposit fail\");\n        // }\n    }\n\n    // get the balances from this contract\n    function getBalance() public view returns(uint){\n        return wallet_address.balance;\n    }\n\n    // submit transaction from this contract\n    function submitTransaction(address _to,uint _value,string memory _desc) public \n    onlyOwner \n    {\n        require(_value <= wallet_address.balance,\"This wallet does not have enough balace to send\");\n        // transactions.push(Transaction({\n        //     to: _to,\n        //     value: _value,\n        //     desc: _desc,\n        //     executed: false,\n        //     numConfirmations: 0,\n        //     isconfirmed: msg.sender\n        // }));\n        Transaction storage newTransaction = transactions.push();\n        newTransaction.to = _to;\n        newTransaction.value = _value;\n        newTransaction.desc = _desc;\n        newTransaction.executed = false;\n        newTransaction.numConfirmations = 1;\n        newTransaction.isConfirmed[msg.sender] = true;\n    }\n\n    // confirm transaction\n    function confirmTransaction(uint _txIndex) public \n    onlyOwner\n    txExists(_txIndex)\n    notConfirmed(_txIndex)\n    notExecuted(_txIndex)\n    {\n        // first step is to update the confirmation of the owner to the transaction\n        Transaction storage transaction = transactions[_txIndex];\n        transaction.isConfirmed[msg.sender] = true;\n        transaction.numConfirmations += 1;\n\n        // second step is to check the transaction's confirmation with the comfirmationOfowner is meet the requirement yet\n        if(transaction.numConfirmations >= confirmationOfOwner){\n            (bool success, ) = transaction.to.call{value:transaction.value}(\"\");\n            if(success){\n                transaction.executed = true;\n                emit ConfirmTransaction(msg.sender, _txIndex);\n                emit ExecuteTransaction(msg.sender, _txIndex);\n            }\n            else{\n                transaction.executed = false;\n                transaction.isConfirmed[msg.sender] = false;\n                transaction.numConfirmations -= 1;\n                revert(\"Transfer is failed\");\n            }\n        }\n\n    }\n\n    // revoke confirmation\n    function revokeConfirmation(uint _txIndex)\n    public\n    onlyOwner\n    txExists(_txIndex)\n    notExecuted(_txIndex)\n    {\n        Transaction storage transaction = transactions[_txIndex];\n\n        require(transaction.isConfirmed[msg.sender], \"tx not confirmed\");\n\n        transaction.isConfirmed[msg.sender] = false;\n        transaction.numConfirmations -= 1;\n\n        emit RevokeConfirmation(msg.sender, _txIndex);\n    }\n\n    // to get the owner of this contract\n    function getOwners() public view returns (Owner[] memory) {\n        return owners;\n    }\n\n    // to get total count of the transaction of this contract\n    function getTransactionCount() public view returns (uint) {\n        return transactions.length;\n    }\n\n    // to get the transaction\n    function getTransaction(uint _txIndex)\n        public\n        view\n        returns (address to, uint value, string memory desc, bool executed, uint numConfirmations)\n    {\n        Transaction storage transaction = transactions[_txIndex];\n\n        return (\n            transaction.to,\n            transaction.value,\n            transaction.desc,\n            transaction.executed,\n            transaction.numConfirmations\n        );\n    }\n\n    // to check the confirmation of the transaction\n    function isConfirmed(uint _txIndex, address _owner)\n        public\n        view\n        returns (bool)\n    {\n        Transaction storage transaction = transactions[_txIndex];\n\n        return transaction.isConfirmed[_owner];\n    }\n}\n\n// owner's name \n// [\"owner_02\",\"owner_03\"]\n\n// owner's address\n// [\"0xAb8483F64d9C6d1EcF9b849Ae677dD3315835cb2\",\"0x4B20993Bc481177ec7E8f571ceCaE8A9e22C02db\"]\n\n// confirmation of the owner\n// 2",
  "sourcePath": "/Users/pon.dara/Desktop/sabay-workspace/PD/multi_sign_wallet_solidity/contracts/MultiSignWallet.sol",
  "compiler": {
    "name": "solc",
    "version": "0.8.14+commit.80d49f37.Emscripten.clang"
  },
  "schemaVersion": "3.4.7",
  "updatedAt": "2022-06-02T07:00:24.747Z",
  "networkType": "ethereum",
  "devdoc": {
    "kind": "dev",
    "methods": {},
    "version": 1
  },
  "userdoc": {
    "kind": "user",
    "methods": {},
    "version": 1
  }
}